:020000040800F2
:1000000000500020E9120008D5110008E111000895
:10001000E7110008ED110008F311000800000000CE
:10002000000000000000000000000000F9110008BE
:100030000512000800000000111200081D1200083F
:100040003113000831130008311300083113000880
:100050003113000831130008311300083113000870
:100060003113000831130008311300083113000860
:100070003113000831130008311300083113000850
:100080003113000831130008311300083113000840
:100090003113000831130008311300083113000830
:1000A0003113000831130008311300083113000820
:1000B0003113000831130008311300083113000810
:1000C0003113000831130008311300083113000800
:1000D00031130008311300083113000831130008F0
:1000E000311300083113000831130008000000002C
:1000F0000000000000000000000000000000000000
:0C01000000000000000000005FF808F1A3
:10010C0010B5054C237833B9044B13B10448AFF345
:10011C0000800123237010BD780000200000000037
:10012C002434000808B5034B1BB103490348AFF353
:10013C00008008BD000000007C0000202434000872
:10014C00034613F8012B002AFBD1181A013870470B
:10015C0080B500AF01F0E8F800F000F900F0AEF95E
:10016C0000F044F900F056F900F07EF94FF480519C
:10017C00094801F0EBFD0346012B05D1074800F0BF
:10018C00C7F800F00FF804E0054800F0C1F800F0E3
:10019C0093F80023184680BD000801403C34000849
:1001AC007434000880B582B000AF0023FB71C82204
:1001BC0000213C4802F016FD4FF0FF330122394973
:1001CC00394802F01BFB374B1B78FB71FB79002B7A
:1001DC0064D0FB799AB24FF0FF333449324802F0C5
:1001EC000DFB304B5B78513B0B2B47D801A252F8DF
:1001FC0023F000BF31020008390200084102000858
:10020C004902000851020008590200086102000866
:10021C006902000871020008AD02000879020008AA
:10022C00810200081F4800F0C9F93AE01D4800F0AF
:10023C000DFA36E01B4800F045FA32E0194800F0A0
:10024C008DFA2EE0174800F0D5FA2AE0154800F098
:10025C003BFB26E0134800F0A3FB22E0114800F022
:10026C0029FC1EE00F4800F0C3FC1AE00D4800F01A
:10027C00C8FC16E00B4800F06FFC12E00C4800F0D4
:10028C0047F8084B5B7819460A4800F041F8054BD3
:10029C009B781946074800F03BF802E000BF86E760
:1002AC0000BF84E728010020A000002029010020C5
:1002BC00B0340008E834000880B584B000AF0F48B3
:1002CC0000F026F80E4B1B68FB60F9680D4800F037
:1002DC001FF8FB683B603B6883F308880A4B1B687C
:1002EC00BB60BB687B607968084800F011F87B68DC
:1002FC00984700BF1037BD4680BD00BFFC340008D6
:10030C000040000828350008044000084835000863
:10031C000FB480B596B000AF07F164037B6007F1B2
:10032C0008037A68396E184602F07AFC07F1080364
:10033C001846FFF705FF03469AB207F108014FF084
:10034C00FF33054802F0C1F900BF5837BD46BDE880
:10035C00804004B0704700BFE800002080B590B02A
:10036C0000AF07F1180328220021184602F03AFCCE
:10037C003B1D00221A605A609A60DA601A610123F0
:10038C00BB614FF48033FB6100233B620123BB62F2
:10039C0002237B634FF48033BB634FF4E013FB63A6
:1003AC0007F11803184601F001FD0346002B01D09C
:1003BC0000F000F90F237B600223BB600023FB607D
:1003CC004FF480633B6100237B613B1D0221184687
:1003DC0001F06CFF0346002B01D000F0EBF802F0AB
:1003EC004FF800BF4037BD4680BD000080B500AF60
:1003FC00064B074A1A60054801F0DBF80346002B50
:10040C0001D000F0D7F800BF80BD00BFE000002095
:10041C000030024080B500AF114B124A1A60104BED
:10042C004FF4E1325A600E4B00229A600C4B0022C2
:10043C00DA600B4B00221A61094B0C225A61084BF3
:10044C0000229A61064B0022DA61054802F0F0F8AE
:10045C000346002B01D000F0ADF800BF80BD00BFFB
:10046C00E80000200044004080B500AF114B124A58
:10047C001A60104B4FF4E1325A600E4B00229A6016
:10048C000C4B0022DA600B4B00221A61094B0C2238
:10049C005A61084B00229A61064B0022DA6105482A
:1004AC0002F0C6F80346002B01D000F083F800BF21
:1004BC0080BD00BFA00000200048004080B588B07F
:1004CC0000AF07F1100300221A605A609A60DA60DC
:1004DC00354B9B69344A43F010039361324B9B6953
:1004EC0003F01003FB60FB682F4B9B692E4A43F013
:1004FC00200393612C4B9B6903F02003BB60BB680A
:10050C00294B9B69284A43F004039361264B9B6952
:10051C0003F004037B607B68234B9B69224A43F006
:10052C0008039361204B9B6903F008033B603B6815
:10053C0000224FF400511D4801F01FFC00224FF423
:10054C0000411B4801F019FC4FF400533B6101239F
:10055C007B610023BB610223FB6107F11003194689
:10056C00124801F099FA4FF480533B6100237B61F0
:10057C000023BB6107F1100319460D4801F08CFAFA
:10058C004FF400433B6101237B610223BB610123D8
:10059C00FB6107F110031946054801F07DFA00BF15
:1005AC002037BD4680BD00BF001002400010014046
:1005BC000008014080B400AFFEE7000080B586B0B3
:1005CC0000AF78601D48FFF7A3FE7B681B780133F2
:1005DC007B617B69043B7A6813441B683B617B69D4
:1005EC00043B3A691946786800F05CFB0346002B23
:1005FC001AD11348FFF78CFE7B681B780121184633
:10060C0000F008FB00F0A4FB0346FB73FB7B1946D0
:10061C00FB7B1A460B48FFF77BFE07F10F0301210A
:10062C00184600F073FB04E00748FFF771FE00F07A
:10063C0019FB00BF1837BD4680BD00BF74350008DC
:10064C00A0350008C4350008E435000880B584B036
:10065C0000AF78601648FFF75BFE164B1B78013332
:10066C00FB60FB68043B134A13441B68BB60FB68CC
:10067C00043BBA6819460F4800F014FB0346002BE4
:10068C000DD10D48FFF744FE7B681B7808211846F6
:10069C0000F0C0FA0821094800F038FB04E00848D3
:1006AC00FFF736FE00F0DEFA00BF1037BD4680BD06
:1006BC000436000828010020A035000800000020A6
:1006CC00E435000880B586B000AF78600023FB816C
:1006DC001D48FFF71DFE1D4B1B7801337B617B69A9
:1006EC00043B1A4A13441B683B617B69043B3A691F
:1006FC001946164800F0D6FA0346002B1AD11448B6
:10070C00FFF706FE7B681B780221184600F082FA80
:10071C0000F026FB0346FB81FB891946FB891A4630
:10072C000C48FFF7F5FD07F10E030221184600F007
:10073C00EDFA04E00848FFF7EBFD00F093FA00BF78
:10074C001837BD4680BD00BF303600082801002098
:10075C00A03500085C360008E435000880B586B08A
:10076C0000AF78600023FB731D48FFF7D1FD1D4BD4
:10077C001B7801337B617B69043B1A4A13441B6869
:10078C003B617B69043B3A691946164800F08AFACA
:10079C000346002B1AD11448FFF7BAFD7B681B786F
:1007AC000121184600F036FA00F0ECFA0346FB7310
:1007BC00FB7B1946FB7B1A460C48FFF7A9FD07F19A
:1007CC000F030121184600F0A1FA04E00848FFF7D6
:1007DC009FFD00F047FA00BF1837BD4680BD00BF33
:1007EC008036000828010020A0350008AC3600082F
:1007FC00E435000880B588B000AF78600023FB6159
:10080C000023FB730123BB732848FFF781FD284BA2
:10081C001B780133BB61BB69043B254A13441B683D
:10082C007B61BB69043B7A691946214800F03AFAAE
:10083C000346002B31D11F48FFF76AFD7B681B78FC
:10084C000121184600F0E6F97B68D3F80230FB6111
:10085C00F9691948FFF75CFDF86900F0A7FA03463F
:10086C00002B10D107F10F030121184600F04EFAAE
:10087C00FB690133FB61FB693B611048FFF748FDE5
:10088C003B6998470EE00E48FFF742FD07F10E0357
:10089C000121184600F03AFA04E00A48FFF738FD47
:1008AC0000F0E0F900BF2037BD4680BDCC36000813
:1008BC0028010020A0350008F43600081037000885
:1008CC0038370008E435000880B586B000AF786092
:1008DC000023FB732B48FFF71BFD2B4B1B780133BD
:1008EC007B617B69043B284A13441B683B617B6931
:1008FC00043B3A691946244800F0D4F90346002B0E
:10090C0037D12248FFF704FD7B681B78012118467C
:10091C0000F080F97B6802331B7819467B6803333F
:10092C001B781A461A48FFF7F3FC01224FF40051CA
:10093C00184801F022FA7B6802331A787B6803337B
:10094C001B781946104600F053FA0346FB7300223D
:10095C004FF400510F4801F010FAFB7B19460E487A
:10096C00FFF7D6FC07F10F030121184600F0CEF972
:10097C0004E00A48FFF7CCFC00F074F900BF18370C
:10098C00BD4680BD5C37000828010020A03500085A
:10099C008C37000800100140C0370008E43500080F
:1009AC0080B588B000AF78600023FB770023FB7321
:1009BC000023BB7700237B777B681B787B777B6876
:1009CC009B793B777B68D3F80230BB617B7F7A687D
:1009DC0013441B78BB772F48FFF79AFC2E4B1B78E0
:1009EC0001337B617B69043B2B4A13441B683B61DD
:1009FC007B69043B3A691946274800F053F90346D2
:100A0C00002B3DD12548FFF783FC7B681B78012127
:100A1C00184600F0FFF8B9692148FFF779FCB8696E
:100A2C0000F0C4F90346002B1ED11E48FFF770FCE2
:100A3C0000224FF400511C4801F09FF97B680733EA
:100A4C003A7FB969184600F019FA0346FB73012284
:100A5C004FF40051144801F090F907F10F030121F4
:100A6C00184600F053F910E01048FFF751FC012331
:100A7C00FB7307F10F030121184600F047F904E05E
:100A8C000B48FFF745FC00F0EDF800BF2037BD46E2
:100A9C0080BD00BFE837000828010020A035000801
:100AAC001838000840380008001001406838000869
:100ABC00E435000880B586B000AF78600023FB7386
:100ACC002048FFF725FC204B1B7801337B617B69A9
:100ADC00043B1D4A13441B683B617B69043B3A6928
:100AEC001946194800F0DEF80346002B20D11748B0
:100AFC00FFF70EFC7B681B780121184600F08AF882
:100B0C007B68023318787B6803331B780022194604
:100B1C0000F0EEF90346FB73FB7B19460C48FFF71C
:100B2C00F7FB07F10F030121184600F0EFF804E082
:100B3C000848FFF7EDFB00F095F800BF1837BD46ED
:100B4C0080BD00BF9438000828010020A0350008A3
:100B5C00C0370008E435000880B586B000AF786077
:100B6C000023FB731D48FFF7D3FB1D4B1B78013390
:100B7C007B617B69043B1A4A13441B683B617B69AC
:100B8C00043B3A691946164800F08CF80346002BD2
:100B9C001BD11448FFF7BCFB7B681B78012118465E
:100BAC0000F038F801220021002000F0A1F90346E2
:100BBC00FB73FB7B19460C48FFF7AAFB07F10F03ED
:100BCC000121184600F0A2F804E00848FFF7A0FB4A
:100BDC0000F048F800BF1837BD4680BDC838000883
:100BEC0028010020A0350008C0370008E4350008B3
:100BFC0080B483B000AF786000BF0C37BD4680BCBA
:100C0C00704780B483B000AF786000BF0C37BD462E
:100C1C0080BC704780B584B000AF03460A46FB71B8
:100C2C001346BB71A5233B73BB797B7301224FF435
:100C3C0000410A4801F0A1F807F10C014FF0FF3315
:100C4C000222074801F041FD00224FF40041034805
:100C5C0001F093F800BF1037BD4680BD000801407D
:100C6C00A000002080B582B000AF7F23FB71012271
:100C7C004FF40041094801F080F8F91D4FF0FF33A3
:100C8C000122074801F021FD00224FF400410348E6
:100C9C0001F073F800BF0837BD4680BD0008014065
:100CAC00A000002080B588B000AFF860B9607A6011
:100CBC00FF23FB610023BB610FE0FA68BB6913449F
:100CCC001B787B6107F11403012219460E4800F0D2
:100CDC008CFCF861BB690133BB61BA69BB689A4291
:100CEC00EBD3094B1B689A68074B1B6842F0010257
:100CFC009A60FA697B689A4201D1002300E00123D3
:100D0C0018462037BD4680BDE000002080B582B07B
:100D1C0000AF7860396001224FF400410A4801F0BD
:100D2C002CF83B689AB24FF0FF337968074801F012
:100D3C00CCFC00224FF40041034801F01EF800BF28
:100D4C000837BD4680BD00BF00080140A000002050
:100D5C0080B400AF10231846BD4680BC704700001D
:100D6C0080B483B000AF064B1B689BB2C3F30B037C
:100D7C00FB80FB8818460C37BD4680BC704700BF13
:100D8C00002004E080B483B000AF0023FB71064B5D
:100D9C003B603B681B681B0AFB71FB7918460C37E0
:100DAC00BD4680BC704700BF00C0FF1F80B483B03D
:100DBC0000AF78607B68B3F1005F05D37B680A4AAB
:100DCC00934201D800230AE07B68B3F1006F05D38E
:100DDC007B68064A934201D8002300E001231846A1
:100DEC000C37BD4680BC7047005000200000020844
:100DFC0080B588B000AF03460A46FB711346BB7141
:100E0C00BB79802B01D9042331E0FB79FF2B02D075
:100E1C00FB79072B2AD8FB79FF2B02D10223FB602D
:100E2C0012E0FB79C3F1FF2303F57F038033FB77DB
:100E3C00BA79FB7F9A4201D9FB7FBB710023FB601F
:100E4C000D4B7B61BB79BB6101233B6100F068FCFE
:100E5C0007F1080207F10C031146184600F074FD67
:100E6C000346BB7700F082FCBB7F00E004231846EE
:100E7C002037BD4680BD00BF0040000890B589B04A
:100E8C0000AFF860B9607A600023FB770023FB8227
:100E9C0000F046FC0023BB611EE0BB690133FA681D
:100EAC0013441B781B021AB2F968BB690B441B78FC
:100EBC001BB213431BB2FB82BA68BB69D118FB8A05
:100ECC004FF000041A462346012000F0B9FB0346FC
:100EDC00FB77BB690233BB61BA697B689A42DCD38E
:100EEC0000F044FCFB7F18462437BD4690BD000043
:100EFC0080B584B000AF0346FB710B46BB71134643
:100F0C007B71444BFB607B79002B25D000F03EFCC1
:100F1C0000BF414BDB6803F00103002BF9D1FB68E8
:100F2C001B6823F00042FB681A60FB681B6843F4E3
:100F3C007F02FB681A60FB681B6843F00202FB68C7
:100F4C001A6000BF344BDB6803F00103002BF9D1AE
:100F5C0000F038FC002358E0BB79012B26D100F0BF
:100F6C0015FC00BF2C4BDB6803F00103002BF9D1FF
:100F7C00FB681B6823F00042FB681A60FB681B6867
:100F8C00FA791204D2431A40FB681A60FB681B689A
:100F9C0043F00202FB681A6000BF1F4BDB6803F0D2
:100FAC000103002BF9D100F00DFC2DE0BB79022BD5
:100FBC002AD100F0EBFB00BF174BDB6803F00103F9
:100FCC00002BF9D1FB681B6843F00042FB681A60E8
:100FDC00FB681B6823F47F02FB681A60FB681B68C4
:100FEC00FA7912041A43FB681A60FB681B6843F019
:100FFC000202FB681A6000BF074BDB6803F00103B9
:10100C00002BF9D100F0DEFB002318461037BD464B
:10101C0080BD00BF143C02400020024080B485B06B
:10102C0000AF154B9B69144A43F001039361124BBB
:10103C009B6903F00103BB60BB680F4BDB690E4A75
:10104C0043F08053D3610C4BDB6903F080537B601E
:10105C007B680A4B5B68FB60FB6823F0E063FB601A
:10106C00FB6843F00073FB60044AFB68536000BFED
:10107C001437BD4680BC7047001002400000014090
:10108C0080B485B000AF78607B681B68094A9342D6
:10109C000BD1094B5B69084A43F040035361064B83
:1010AC005B6903F04003FB60FB6800BF1437BD466F
:1010BC0080BC7047003002400010024080B58AB0FE
:1010CC0000AF786007F1180300221A605A609A602A
:1010DC00DA607B681B68374A934230D1364BDB6948
:1010EC00354A43F40033D361334BDB6903F40033EB
:1010FC007B617B69304B9B692F4A43F004039361FE
:10110C002D4B9B6903F004033B613B690423BB61DA
:10111C000223FB6103237B6207F11803194627485E
:10112C0000F0BAFC0823BB610023FB6100233B6287
:10113C0007F118031946214800F0AEFC36E07B6835
:10114C001B681F4A934231D11B4BDB691A4A43F48B
:10115C008023D361184BDB6903F48023FB60FB68AD
:10116C00154B9B69144A43F008039361124B9B691E
:10117C0003F00803BB60BB684FF48063BB610223C0
:10118C00FB6103237B6207F1180319460D4800F03D
:10119C0083FC4FF40063BB610023FB6100233B62C3
:1011AC0007F118031946074800F076FC00BF2837F2
:1011BC00BD4680BD004400400010024000080140C4
:1011CC0000480040000C014080B500AF01F0F8F978
:1011DC0000BF80BD80B400AFFEE780B400AFFEE777
:1011EC0080B400AFFEE780B400AFFEE780B400AF80
:1011FC0000BFBD4680BC704780B400AF00BFBD4689
:10120C0080BC704780B400AF00BFBD4680BC704747
:10121C0080B500AF00F0CEF800BF80BD80B584B0C3
:10122C0000AF7860114B1B68002B02D10F4B104A9A
:10123C001A600E4B1B68FB600C4B1A687B681344DE
:10124C006A46934207D901F0A3FC02460C231360B3
:10125C004FF0FF3306E0054B1A687B681344034AD2
:10126C001360FB6818461037BD4680BD9400002003
:10127C002002002080B400AF154B1B68144A43F0C9
:10128C0001031360124B5A681149124B13404B6007
:10129C000F4B1B680E4A23F0847323F480331360C6
:1012AC000B4B1B680A4A23F480231360084B5B68C2
:1012BC00074A23F4FE035360054B4FF41F029A6058
:1012CC00054B4FF000629A6000BFBD4680BC704772
:1012DC00001002400000FFF800ED00E0002103E0E8
:1012EC000B4B5B58435004310A480B4B42189A4243
:1012FC00F6D30A4A02E0002342F8043B084B9A4218
:10130C00F9D3FFF7B7FF01F049FCFEF721FF704757
:10131C00C039000800000020780000207800002070
:10132C001C020020FEE7000080B500AF084B1B68D4
:10133C00074A43F010031360032000F007F9002064
:10134C0000F008F8FFF76AFE0023184680BD00BFC6
:10135C000020024080B582B000AF7860124B1A6852
:10136C00124B1B7819464FF47A73B3FBF1F3B2FBB3
:10137C00F3F3184600F011F90346002B01D00123BA
:10138C000EE07B680F2B0AD8002279684FF0FF30F3
:10139C0000F0E7F8064A7B681360002300E00123A5
:1013AC0018460837BD4680BD0800002010000020FC
:1013BC000C00002080B400AF054B1B781A46054B7F
:1013CC001B681344034A136000BFBD4680BC7047C2
:1013DC0010000020F001002080B400AF024B1B680D
:1013EC001846BD4680BC7047F001002080B485B023
:1013FC0000AF78607B6803F00703FB600C4BDB6885
:10140C00BB60BA684FF6FF031340BB60FB681A025F
:10141C00BB68134343F0BF6343F40033BB60044A1F
:10142C00BB68D36000BF1437BD4680BC704700BF9B
:10143C0000ED00E080B400AF044BDB681B0A03F046
:10144C0007031846BD4680BC704700BF00ED00E0A6
:10145C0080B483B000AF03463960FB7197F9073055
:10146C00002B0ADB3B68DAB20C4997F90730120102
:10147C00D2B20B4483F800230AE03B68DAB2084985
:10148C00FB7903F00F03043B1201D2B20B441A7622
:10149C0000BF0C37BD4680BC704700BF00E100E0C8
:1014AC0000ED00E080B489B000AFF860B9607A60FC
:1014BC00FB6803F00703FB61FB69C3F10703042B13
:1014CC0028BF0423BB61FB690433062B02D9FB69DB
:1014DC00033B00E000237B614FF0FF32BB6902FA53
:1014EC0003F3DA43BB681A407B699A404FF0FF3133
:1014FC007B6901FA03F3D9437B680B40134318460D
:10150C002437BD4680BC704780B582B000AF786090
:10151C007B68013BB3F1807F01D301230FE00A4AC2
:10152C007B68013B53600F214FF0FF30FFF790FFBA
:10153C00054B00229A60044B07221A6000231846C0
:10154C000837BD4680BD00BF10E000E080B582B01A
:10155C0000AF78607868FFF749FF00BF0837BD46D9
:10156C0080BD80B586B000AF0346B9607A60FB736E
:10157C0000237B61FFF75EFF78617A68B968786950
:10158C00FFF790FF024697F90F3011461846FFF708
:10159C005FFF00BF1837BD4680BD80B582B000AF7D
:1015AC0078607868FFF7B0FF034618460837BD46E9
:1015BC0080BD80B582B000AF78607B68002B01D114
:1015CC0001230EE07B685B79DBB2002B05D17B68D5
:1015DC0000221A717868FFF753FD7B6801225A715B
:1015EC00002318460837BD4680BD80B487B000AFD5
:1015FC00F860B9607A6000233B61FB6802225A7183
:10160C0000237B610AE07B699B00BA681A44FB6883
:10161C001B6812681A607B6901337B617A697B688D
:10162C009A42F0D3FB681B681B683B61FB68012284
:10163C005A713B6918461C37BD4680BC7047000088
:10164C00F0B587B000AFF860B960C7E9002301239B
:10165C00FB750023BB7500237B752F4B1B7E012B69
:10166C0001D1022354E02C4B01221A764CF250305B
:10167C0000F0D4F80346FB75FB7D002B44D1FB68CE
:10168C00012B02D101237B7507E0FB68022B02D1F1
:10169C0002237B7501E004237B750023BB752DE0D1
:1016AC00BB7D5A00BB6802EB030CBB7D1901D7E96B
:1016BC000023C1F12006A1F1200022FA01F403FA63
:1016CC0006F6344323FA00F0044323FA01F5A3B2DF
:1016DC001946604600F086F84CF2503000F09EF847
:1016EC000346FB750D4B1B690C4A23F00103136178
:1016FC00FB7D002B07D1BB7D0133BB75BA7D7B7D98
:10170C009A42CDD300E000BF034B00221A76FB7D3A
:10171C0018461C37BD46F0BDF801002000200240E1
:10172C0080B483B000AF0023FB710D4B1B6903F039
:10173C008003002B0DD00A4B0A4A5A60084B0A4A08
:10174C005A60074B1B6903F08003002B01D0012367
:10175C00FB71FB7918460C37BD4680BC704700BF47
:10176C000020024023016745AB89EFCD80B400AF68
:10177C00054B1B69044A43F0800313610023184690
:10178C00BD4680BC704700BF0020024080B400AF53
:10179C00094B1B6903F40073002B07D1064B074A56
:1017AC009A60054B064A9A60002300E00123184614
:1017BC00BD4680BC704700BF002002402301674536
:1017CC00AB89EFCD80B400AF054B1B69044A23F401
:1017DC000073136100231846BD4680BC704700BFE0
:1017EC000020024080B483B000AF78600B467B8051
:1017FC00084B0022DA61084B1B69074A43F00103CE
:10180C0013617B687A881A8000BF0C37BD4680BC98
:10181C00704700BFF80100200020024080B584B062
:10182C0000AF7860FFF7D8FDF86010E07B68B3F18B
:10183C00FF3F0CD07B68002B07D0FFF7CDFD024695
:10184C00FB68D31A7A689A4201D2032325E0154B20
:10185C00DB6803F00103002BE8D1124BDB6803F0CB
:10186C002003002B02D00F4B2022DA600D4BDB68DB
:10187C0003F01003002B0BD10A4BDB6903F00103BF
:10188C00002B05D1074BDB6803F00403002B03D0BE
:10189C0000F00AF8012300E0002318461037BD467B
:1018AC0080BD00BF0020024080B483B000AF002395
:1018BC007B60234BDB6803F01003002B09D0214B1A
:1018CC00DB6943F002031F4AD3617B6843F01003CA
:1018DC007B601B4BDB6803F00403002B09D0194B16
:1018EC00DB6943F00103174AD3617B6843F00403BF
:1018FC007B60134BDB6903F00103002B0BD0114B06
:10190C00DB6943F004030F4AD3610D4BDB690C4ACE
:10191C0023F00103D3617B6840F20112934206D19C
:10192C00074BDB69064A23F00103D36102E0044A4A
:10193C007B68D36000BF0C37BD4680BC704700BFCE
:10194C0000200240F801002080B584B000AF786020
:10195C0039600123FB730023BB602F4B1B7E012BD3
:10196C0001D1022353E02C4B01221A767B681B68B1
:10197C00022B16D14CF25030FFF750FF0346002BD0
:10198C0041D1012000F04CF84CF25030FFF746FFEB
:10199C000346FB73214B1B69204A23F0040313619C
:1019AC0031E04CF25030FFF739FF0346002B2AD1BF
:1019BC003B684FF0FF321A607B689B68BB6019E094
:1019CC00B86800F049F84CF25030FFF727FF034697
:1019DC00FB73124B1B69114A23F002031361FB7B4F
:1019EC00002B03D03B68BA681A600CE0BB6803F5A7
:1019FC008063BB607B68DB689A027B689B681344DE
:101A0C00BA689A42DCD3044B00221A76FB7B184648
:101A1C001037BD4680BD00BFF801002000200240F9
:101A2C0080B483B000AF7860094B0022DA61094BB7
:101A3C001B69084A43F004031361064B1B69054AF2
:101A4C0043F04003136100BF0C37BD4680BC7047A8
:101A5C00F80100200020024080B483B000AF786011
:101A6C000B4B0022DA610B4B1B690A4A43F0020351
:101A7C001361084A7B685361064B1B69054A43F0A6
:101A8C004003136100BF0C37BD4680BC704700BFDC
:101A9C00F80100200020024080B48BB000AF7860C9
:101AAC00396000237B6200233B6227E101227B6AC1
:101ABC0002FA03F3FB613B681B68FA691340BB61D4
:101ACC00BA69FB699A4240F016813B685B68122B3D
:101ADC0034D0122B0DD8022B2BD0022B04D8002B78
:101AEC0031D0012B1CD048E0032B43D0112B1BD041
:101AFC0043E0894A934226D0874A934206D8874AC4
:101B0C00934220D0864A93421DD036E0854A9342B8
:101B1C0019D0854A934216D0844A934213D02CE0B4
:101B2C003B68DB683B6228E03B68DB6804333B6264
:101B3C0023E03B68DB6808333B621EE03B68DB68F4
:101B4C000C333B6219E03B689B68002B02D10423E9
:101B5C003B6212E03B689B68012B05D108233B627A
:101B6C007B68FA691A6108E008233B627B68FA69B2
:101B7C005A6102E000233B6200BFBB69FF2B01D816
:101B8C007B6801E07B6804337B61BB69FF2B02D867
:101B9C007B6A9B0002E07B6A083B9B003B617B6994
:101BAC001A680F213B6901FA03F3DB431A40396AC7
:101BBC003B6901FA03F31A437B691A603B685B6863
:101BCC0003F08053002B00F09680594B9B69584AC8
:101BDC0043F001039361564B9B6903F00103BB6017
:101BEC00BB68544A7B6A9B08023352F82330FB6073
:101BFC007B6A03F003039B000F2202FA03F3DB431F
:101C0C00FA681340FB607B684B4A934213D07B68A5
:101C1C004A4A93420DD07B68494A934207D07B686D
:101C2C00484A934201D1032306E0042304E0022333
:101C3C0002E0012300E000237A6A02F00302920022
:101C4C009340FA681343FB603A497B6A9B08023362
:101C5C00FA6841F823203B685B6803F48033002B5F
:101C6C0006D0394B1A683849BB6913430B6006E040
:101C7C00354B1A68BB69DB43334913400B603B6837
:101C8C005B6803F40033002B06D02F4B5A682E49A7
:101C9C00BB6913434B6006E02B4B5A68BB69DB43B3
:101CAC00294913404B603B685B6803F48013002B9D
:101CBC0006D0254B9A682449BB6913438B6006E018
:101CCC00214B9A68BB69DB431F4913408B603B680F
:101CDC005B6803F40013002B06D01B4BDA681A491F
:101CEC00BB691343CB6006E0174BDA68BB69DB4377
:101CFC0015491340CB607B6A01337B623B681A68E1
:101D0C007B6A22FA03F3002B7FF4D0AE00BF2C3792
:101D1C00BD4680BC704700BF0000211000001110B0
:101D2C0000001210000031100000321000002210D0
:101D3C00001002400000014000080140000C01406E
:101D4C0000100140001401400004014080B485B033
:101D5C0000AF78600B467B807B689A687B88134069
:101D6C00002B02D00123FB7301E00023FB73FB7BF0
:101D7C0018461437BD4680BC704780B483B000AFA2
:101D8C0078600B467B8013467B707B78002B03D0EE
:101D9C007A887B681A6103E07B881A047B681A6175
:101DAC0000BF0C37BD4680BC7047000080B586B0C4
:101DBC0000AF78607B68002B01D101236CE27B685B
:101DCC001B6803F00103002B00F08780924B5B68CB
:101DDC0003F00C03042B0CD08F4B5B6803F00C034B
:101DEC00082B12D18C4B5B6803F48033B3F5803F26
:101DFC000BD1894B1B6803F40033002B6CD07B6830
:101E0C005B68002B68D1012346E27B685B68B3F505
:101E1C00803F06D1804B1B687F4A43F480331360AC
:101E2C002EE07B685B68002B0CD17B4B1B687A4ADD
:101E3C0023F480331360784B1B68774A23F4802398
:101E4C0013601DE07B685B68B3F5A02F0CD1724B5F
:101E5C001B68714A43F4802313606F4B1B686E4AF6
:101E6C0043F4803313600BE06B4B1B686A4A23F41A
:101E7C0080331360684B1B68674A23F4802313601C
:101E8C007B685B68002B13D0FFF7A6FA386108E07B
:101E9C00FFF7A2FA02463B69D31A642B01D903233C
:101EAC00FAE15D4B1B6803F40033002BF0D014E017
:101EBC00FFF792FA386108E0FFF78EFA02463B69A9
:101ECC00D31A642B01D90323E6E1534B1B6803F4AB
:101EDC000033002BF0D100E000BF7B681B6803F0DF
:101EEC000203002B63D04C4B5B6803F00C03002BFC
:101EFC000BD0494B5B6803F00C03082B1CD1464BF1
:101F0C005B6803F48033002B16D1434B1B6803F042
:101F1C000203002B05D07B681B69012B01D0012328
:101F2C00BAE13D4B1B6823F0F8027B685B69DB0070
:101F3C00394913430B603AE07B681B69002B20D0B6
:101F4C00364B01221A60FFF747FA386108E0FFF7B9
:101F5C0043FA02463B69D31A022B01D903239BE1B6
:101F6C002D4B1B6803F00203002BF0D02A4B1B688F
:101F7C0023F0F8027B685B69DB00274913430B6095
:101F8C0015E0264B00221A60FFF726FA386108E0AC
:101F9C00FFF722FA02463B69D31A022B01D903231D
:101FAC007AE11D4B1B6803F00203002BF0D17B6818
:101FBC001B6803F00803002B3AD07B689B69002B4D
:101FCC0019D0174B01221A60FFF706FA386108E0A6
:101FDC00FFF702FA02463B69D31A022B01D90323FD
:101FEC005AE10D4B5B6A03F00203002BF0D0012089
:101FFC0000F0FAFA1CE00A4B00221A60FFF7ECF929
:10200C0038610FE0FFF7E8F902463B69D31A022B5F
:10201C0008D9032340E100BF0010024000004242F7
:10202C00800442429E4B5B6A03F00203002BE9D111
:10203C007B681B6803F00403002B00F0A6800023D0
:10204C00FB75974BDB6903F08053002B0DD1944B40
:10205C00DB69934A43F08053D361914BDB6903F006
:10206C008053BB60BB680123FB758E4B1B6803F46C
:10207C008073002B18D18B4B1B688A4A43F48073F6
:10208C001360FFF7A9F9386108E0FFF7A5F90246DC
:10209C003B69D31A642B01D90323FDE0814B1B68E8
:1020AC0003F48073002BF0D07B68DB68012B06D126
:1020BC007B4B1B6A7A4A43F0010313622DE07B6869
:1020CC00DB68002B0CD1764B1B6A754A23F001039D
:1020DC001362734B1B6A724A23F0040313621CE0F5
:1020EC007B68DB68052B0CD16D4B1B6A6C4A43F08B
:1020FC00040313626A4B1B6A694A43F001031362BF
:10210C000BE0674B1B6A664A23F001031362644BB6
:10211C001B6A634A23F0040313627B68DB68002BA1
:10212C0015D0FFF759F938610AE0FFF755F9024667
:10213C003B69D31A41F28832934201D90323ABE0B5
:10214C00574B1B6A03F00203002BEED014E0FFF791
:10215C0043F938610AE0FFF73FF902463B69D31AAD
:10216C0041F28832934201D9032395E04C4B1B6A10
:10217C0003F00203002BEED1FB7D012B05D1484B64
:10218C00DB69474A23F08053D3617B68DB69002B02
:10219C0000F08180424B5B6803F00C03082B61D08C
:1021AC007B68DB69022B46D13F4B00221A60FFF79C
:1021BC0013F9386108E0FFF70FF902463B69D31AAF
:1021CC00022B01D9032367E0354B1B6803F0007326
:1021DC00002BF0D17B681B6AB3F5803F08D1304BE4
:1021EC005B6823F400327B689B682D4913434B607A
:1021FC002B4B5B6823F474127B68196A7B685B6AEF
:10220C000B43274913434B60274B01221A60FFF7FE
:10221C00E3F8386108E0FFF7DFF802463B69D31AB0
:10222C00022B01D9032337E01D4B1B6803F000730D
:10223C00002BF0D02FE01C4B00221A60FFF7CCF8DB
:10224C00386108E0FFF7C8F802463B69D31A022B45
:10225C0001D9032320E0124B1B6803F00073002B01
:10226C00F0D118E07B68DB69012B01D1012313E06D
:10227C000B4B5B68FB60FB6803F480327B681B6A6A
:10228C009A4206D1FB6803F470127B685B6A9A422F
:10229C0001D0012300E0002318461837BD4680BD4D
:1022AC0000100240007000406000424280B584B0D3
:1022BC0000AF786039607B68002B01D10123D0E03E
:1022CC006A4B1B6803F007033A689A4210D9674BB4
:1022DC001B6823F0070265493B6813430B60634B93
:1022EC001B6803F007033A689A4201D00123B8E057
:1022FC007B681B6803F00203002B20D07B681B68F3
:10230C0003F00403002B05D0594B5B68584A43F487
:10231C00E06353607B681B6803F00803002B05D057
:10232C00534B5B68524A43F460535360504B5B68A9
:10233C0023F0F0027B689B684D4913434B607B682C
:10234C001B6803F00103002B40D07B685B68012BFA
:10235C0007D1474B1B6803F40033002B15D1012325
:10236C007FE07B685B68022B07D1414B1B6803F055
:10237C000073002B09D1012373E03D4B1B6803F064
:10238C000203002B01D101236BE0394B5B6823F076
:10239C0003027B685B68364913434B60FFF71CF8FC
:1023AC00F8600AE0FFF718F80246FB68D31A41F20E
:1023BC008832934201D9032353E02D4B5B6803F021
:1023CC000C027B685B689B009A42EBD1274B1B6825
:1023DC0003F007033A689A4210D2244B1B6823F08F
:1023EC00070222493B6813430B60204B1B6803F028
:1023FC0007033A689A4201D0012332E07B681B68DC
:10240C0003F00403002B08D0194B5B6823F4E06243
:10241C007B68DB68164913434B607B681B6803F0D1
:10242C000803002B09D0124B5B6823F460527B68C5
:10243C001B69DB000E4913434B6000F02DF801467D
:10244C000B4B5B681B0903F00F030A4AD35C21FAA0
:10245C0003F3094A1360094B1B681846FEF77AFF11
:10246C00002318461037BD4680BD00BF0020024037
:10247C00001002406C390008080000200C000020FD
:10248C0080B400AF034B01221A6000BFBD4680BC74
:10249C00704700BF4C00424290B48AB000AF2A4B48
:1024AC003C1D0FCB84E80F00284B1B883B8000237E
:1024BC00FB610023BB6100237B6200237B61002353
:1024CC003B62234B5B68FB61FB6903F00C03042B41
:1024DC0002D0082B03D02DE01E4B3B622DE0FB6994
:1024EC009B0C03F00F0307F12802134413F8243C50
:1024FC007B61FB6903F48033002B13D0144B5B68B6
:10250C005B0C03F0010307F12802134413F8283C79
:10251C00BB617B690F4A02FB03F2BB69B2FBF3F3AD
:10252C007B6204E07B690C4A02FB03F37B627B6AEF
:10253C003B6202E0074B3B6200BF3B6A1846283700
:10254C00BD4690BC704700BF583900086839000878
:10255C000010024000127A0000093D0080B400AF68
:10256C00024B1B681846BD4680BC70470800002013
:10257C0080B500AFFFF7F2FF0146054B5B681B0A05
:10258C0003F00703034AD35C21FA03F3184680BD1A
:10259C00001002407C39000880B500AFFFF7DEFF69
:1025AC000146054B5B68DB0A03F00703034AD35C67
:1025BC0021FA03F3184680BD001002407C39000854
:1025CC0080B500AF064B9B6803F08003802B04D1D1
:1025DC0000F028F8034B80221A7000BF80BD00BFAA
:1025EC00001002400A10024080B485B000AF786041
:1025FC000A4B1B680A4AA2FB03235B0A7A6802FB9C
:10260C0003F3FB6000BFFB685A1EFA60002BF9D184
:10261C0000BF1437BD4680BC704700BF08000020C7
:10262C00D34D621080B400AF00BFBD4680BC704774
:10263C0080B582B000AF78607B68002B01D101239C
:10264C003FE07B6893F83930DBB2002B06D17B6816
:10265C00002283F838207868FEF730FD7B6824224E
:10266C0083F839207B681B68DA687B681B6822F466
:10267C000052DA60786800F0B1F97B681B681A695F
:10268C007B681B6822F490421A617B681B685A694C
:10269C007B681B6822F02A025A617B681B68DA6827
:1026AC007B681B6842F40052DA607B680022DA63B4
:1026BC007B68202283F839207B68202283F83A201B
:1026CC00002318460837BD4680BD80B588B002AFE0
:1026DC00F860B9603B601346FB8000237B61FB68AC
:1026EC0093F83930DBB2202B40F08380BB68002B91
:1026FC0002D0FB88002B01D101237BE0FB6893F80F
:10270C003830012B01D1022374E0FB68012283F8DD
:10271C003820FB680022DA63FB68212283F8392019
:10272C00FEF75AFE7861FB68FA889A84FB68FA888F
:10273C00DA8442E0FB68DB8C9BB2013B9AB2FB680B
:10274C00DA84FB689B68B3F5805F22D13B68009309
:10275C007B6900228021F86800F0F6F80346002B14
:10276C0001D0032346E0BB683B613B691B881A46DA
:10277C00FB681B68C2F308025A60FB681B69002BDC
:10278C0003D1BB680233BB6017E0BB680133BB608D
:10279C0013E03B6800937B6900228021F86800F00D
:1027AC00D3F80346002B01D0032323E0BB685A1C4B
:1027BC00BA601A78FB681B685A60FB68DB8C9BB2AA
:1027CC00002BB7D13B6800937B6900224021F8684D
:1027DC0000F0BAF80346002B01D003230AE0FB6893
:1027EC00202283F83920FB68002283F8382000234C
:1027FC0000E0022318461837BD4680BD80B588B06E
:10280C0002AFF860B9603B601346FB8000237B612C
:10281C00FB6893F83A30DBB2202B40F09080BB6819
:10282C00002B02D0FB88002B01D1012388E0FB6830
:10283C0093F83830012B01D1022381E0FB6801228F
:10284C0083F83820FB680022DA63FB68222283F8C5
:10285C003A20FEF7C1FD7861FB68FA889A85FB681F
:10286C00FA88DA855CE0FB68DB8D9BB2013B9AB29F
:10287C00FB68DA85FB689B68B3F5805F2BD13B68FE
:10288C0000937B6900222021F86800F05DF8034674
:10289C00002B01D0032353E0BB683B61FB681B6931
:1028AC00002B0CD1FB681B685B689BB2C3F308035D
:1028BC009AB23B691A80BB680233BB6030E0FB689C
:1028CC001B685B689BB2DBB29AB23B691A80BB682F
:1028DC000133BB6024E03B6800937B69002220211C
:1028EC00F86800F031F80346002B01D0032327E0F1
:1028FC00FB681B69002B08D1FB681B685968BB6817
:10290C005A1CBA60CAB21A700AE0FB681B685B6892
:10291C00DAB2BB68591CB96002F07F02D2B21A70ED
:10292C00FB68DB8D9BB2002B9DD1FB68202283F8CA
:10293C003A20FB68002283F83820002300E00223B1
:10294C0018461837BD4680BD80B584B000AFF8601E
:10295C00B9603B601346FB712CE0BB69B3F1FF3FE0
:10296C0028D0BB69002B07D0FEF736FD02463B682A
:10297C00D31ABA699A421DD2FB681B68DA68FB68E5
:10298C001B6822F4D072DA60FB681B685A69FB681A
:10299C001B6822F001025A61FB68202283F839205F
:1029AC00FB68202283F83A20FB68002283F8382049
:1029BC0003230FE0FB681B681A68BB681340BA68F6
:1029CC009A420CBF01230023DBB21A46FB799A42D0
:1029DC00C3D0002318461037BD4680BD80B584B0E7
:1029EC0000AF78607B681B681B6923F440517B68DF
:1029FC00DA687B681B680A431A617B689A687B6893
:102A0C001B691A437B685B691343FB607B681B681B
:102A1C00DB6823F4B05323F00C037A681268F9686E
:102A2C000B43D3607B681B685B6923F440717B6844
:102A3C009A697B681B680A435A617B681B68524A17
:102A4C0093424ED1FFF7A8FDB860BA6813469B00BD
:102A5C0013449A001A447B685B689B00B2FBF3F347
:102A6C004A4AA2FB03235B091901BA6813469B006F
:102A7C0013449A001A447B685B689B00B2FBF3F228
:102A8C00424BA3FB02035B09642000FB03F3D31A44
:102A9C001B0132333D4AA2FB03235B0903F0F00315
:102AAC001944BA6813469B0013449A001A447B6875
:102ABC005B689B00B2FBF3F2344BA3FB02035B0994
:102ACC00642000FB03F3D31A1B0132332F4AA2FB01
:102ADC0003235B0903F00F027B681B680A449A60AE
:102AEC004DE0FFF745FDB860BA6813469B001344F0
:102AFC009A001A447B685B689B00B2FBF3F3234A91
:102B0C00A2FB03235B091901BA6813469B0013440B
:102B1C009A001A447B685B689B00B2FBF3F21B4B78
:102B2C00A3FB02035B09642000FB03F3D31A1B0114
:102B3C003233164AA2FB03235B0903F0F00319445A
:102B4C00BA6813469B0013449A001A447B685B686E
:102B5C009B00B2FBF3F20D4BA3FB02035B09642059
:102B6C0000FB03F3D31A1B013233084AA2FB0323E5
:102B7C005B0903F00F027B681B680A449A6000BF74
:102B8C001037BD4680BD00BF003801401F85EB519A
:102B9C00014B1868704700BF1400002070B5002569
:102BAC000C4E0D4CA41BA410A54209D100F034FC12
:102BBC0000250A4E0A4CA41BA410A54205D170BDD9
:102BCC0056F8253098470135EEE756F825309847EA
:102BDC000135F2E7B8390008B8390008B8390008EF
:102BEC00BC39000803460244934200D1704703F8F5
:102BFC00011BF9E700B59BB0009104916FF0004107
:102C0C000591029105490391694600F06DF8002287
:102C1C00009B1A701BB05DF804FB00BF0802FFFF9D
:102C2C0013460A46014602480068FFF7E3BF00BF9F
:102C3C00140000202DE9F0478E6882469E420C4617
:102C4C009046994637D88A8912F4906F31D0022376
:102C5C00256809696F1A656905EB450595FBF3F560
:102C6C0009F101033B449D4238BF1D46530530D545
:102C7C00294600F037FB064650B90C234FF0FF30C5
:102C8C00CAF80030A38943F04003A381BDE8F08764
:102C9C003A46216900F0B6FAA38923F4906343F015
:102CAC008003A38126613E4426604E466561ED1B80
:102CBC00A5604E4500D94E4632464146206800F08C
:102CCC00ACFAA36800209B1BA36023681E442660FB
:102CDC00DCE72A4600F060FB06460028E2D12169B9
:102CEC00504600F0B3FAC8E72DE9F04F1D468B892A
:102CFC009DB01F0680460C4616460FD50B696BB966
:102D0C00402100F0EFFA2060206128B90C23C8F8AC
:102D1C0000304FF0FF30C8E040236361002309937B
:102D2C0020238DF8293030234FF0010B8DF82A30F9
:102D3C00039537463D4615F8013B0BB1252B3ED18B
:102D4C00B7EB060A0BD05346324621464046FFF7F6
:102D5C0071FF013000F0A480099B534409933B7828
:102D6C00002B00F09D8000234FF0FF32CDE90523AE
:102D7C00049307938DF853301A932F46052217F8B6
:102D8C00011B504800F030FA049BD0B9D90644BF5F
:102D9C0020228DF853201A0744BF2B228DF8532084
:102DAC002A782A2A15D02F4600200A25079A394658
:102DBC0011F8013B303B092B4DD9B8B10FE02F4630
:102DCC00B8E7404A3D46801A0BFA00F018430490CD
:102DDC00D3E7039A111D12680391002A01DB0792B5
:102DEC0004E0524243F00203079204933B782E2BEB
:102DFC000CD17B782A2B33D1039B02371A1D1B680D
:102E0C000392002BB8BF4FF0FF3305932E4D0322D6
:102E1C003978284600F0E8F938B14023401B03FA12
:102E2C0000F0049B013703430493397806222748AA
:102E3C007E1C8DF8281000F0D7F9002838D0244BD0
:102E4C0013BB039B073323F0070308330393099B3E
:102E5C004B4409936DE705FB023201200F46A6E7B0
:102E6C0000230A25194601370593384610F8012B23
:102E7C00303A092A03D9002BC8D00591C6E705FBC7
:102E8C00012101230746F0E703AB00932246114BC7
:102E9C0004A94046AFF30080B0F1FF3F8146D6D184
:102EAC00A3895B063FF535AF09981DB0BDE8F08FDF
:102EBC0003AB00932246074B04A9404600F082F86E
:102ECC00EAE700BF843900088A3900088E39000807
:102EDC0000000000412C00082DE9F04791461F46E8
:102EEC008A680B6906469342B8BF1346C9F800308E
:102EFC0091F843200C46DDF8208012B10133C9F85B
:102F0C0000302368990642BFD9F800300233C9F863
:102F1C000030256815F0060507D104F1190AE3689D
:102F2C00D9F800209B1AAB4229DC94F84330226874
:102F3C00003318BF012392062ED404F14302394604
:102F4C003046C047013021D02368E56803F0060302
:102F5C00042B18BF0025D9F800204FF0000908BF3A
:102F6C00AD1AA368226908BF25EAE5759342C4BF70
:102F7C009B1AED181A344D451AD1002008E0012394
:102F8C00524639463046C047013003D14FF0FF302E
:102F9C00BDE8F0870135C2E73020E11881F8430025
:102FAC005A1C94F845102244023382F84310C4E7AB
:102FBC000123224639463046C0470130E6D009F19C
:102FCC000109D8E72DE9F04301F1430C0C46097EC9
:102FDC0085B06E291746064698460C9A00F0B380C9
:102FEC0022D8632936D00AD8002900F0B980582994
:102FFC0000F0838004F1420584F8421032E0642929
:10300C0001D06929F6D120681368050603F1040183
:10301C002AD51B681160002B03DA2D225B4284F841
:10302C0043206F480A2239E0732900F09D8008D8AC
:10303C006F2920D07029DDD1236843F02003236051
:10304C0003E0752917D07829D4D17823654884F802
:10305C00453055E0136804F14205191D1B681160D9
:10306C0084F8423001238CE01B6810F0400F116093
:10307C0018BF1BB2CFE713682568181D106028060F
:10308C0001D51B6802E06806FBD51B886F2914BFAD
:10309C000A2208225248002184F843106568002D4A
:1030AC00A560C0F29580216821F004012160002BFD
:1030BC003DD1002D40F08E806546082A0BD1236847
:1030CC00DB0708D5236962689A42DEBF302305F816
:1030DC00013C05F1FF35ACEB05032361CDF8008015
:1030EC003B4603AA21463046FFF7F6FE01304DD190
:1030FC004FF0FF3005B0BDE8F083394884F8451037
:10310C00136821681D1D1B6815600A060BD5CA07BC
:10311C0044BF41F0200121601BB9226822F020023B
:10312C0022601022B7E74D0648BF9BB2EFE7654619
:10313C00B3FBF2F102FB1133C35C05F8013D0B4606
:10314C000029F5D1B9E713682568181D616910606D
:10315C0028061B6801D5196002E06A06FBD51980A8
:10316C00002365462361B9E71368191D11601D68BA
:10317C0062680021284600F037F808B1401B6060F7
:10318C0063682361002384F84330A7E723692A4648
:10319C0039463046C0470130AAD023689B0713D468
:1031AC00E068039B9842B8BF1846A3E701234A4640
:1031BC0039463046C04701309AD00135E368039A4E
:1031CC009B1AAB42F2DCEBE7002504F11909F5E799
:1031DC00002BACD1037804F1420584F842306CE743
:1031EC0095390008A639000810B5C9B202449042BE
:1031FC00034601D1002303E01C7801308C42F6D148
:10320C00184610BD10B5431E0A44914200D110BDA2
:10321C0011F8014B03F8014FF7E7884210B501EBA9
:10322C00020307D8421E99420AD011F8014B02F84A
:10323C00014FF8E78342F5D98118D21AD34200D155
:10324C0010BD13F8014D01F8014DF7E738B50546EF
:10325C00002943D051F8043C0C1F002BB8BFE418D4
:10326C0000F0D0F81E4A1368104633B9636014603E
:10327C002846BDE8384000F0C6B8A3420BD92168F7
:10328C006218934201BF1A685B685218226063602F
:10329C000460EDE713465A680AB1A242FAD91968DC
:1032AC005818A0420BD1206801445818824219606A
:1032BC00DED110685268014419605A60D8E702D90F
:1032CC000C232B60D4E7206821188A4201BF1168B7
:1032DC0052680918216062605C60C9E738BD00BFA4
:1032EC009800002070B5CD1C25F0030508350C2D79
:1032FC0038BF0C25002D064601DBA94203D90C234F
:10330C003360002070BD00F07DF8214A146821461E
:10331C0091B9204C23681BB9304600F063F820604B
:10332C002946304600F05EF8431C24D10C2330466D
:10333C00336000F068F8E4E70B685B1B18D40B2BC8
:10334C000FD90B60CC18CD50304600F05CF804F16E
:10335C000B00231D20F00700C31AD3D05A42E250B1
:10336C00D0E74B688C4216BF636013600C46EBE7EA
:10337C000C464968CCE7C41C24F00304A04205D0D9
:10338C00211A304600F02EF80130CFD02560DBE753
:10339C00980000209C000020F8B5074614460E4605
:1033AC0021B9BDE8F8401146FFF79CBF22B9FFF7E1
:1033BC004DFF25462846F8BD00F026F8A0420FD256
:1033CC0021463846FFF78EFF05460028F2D03146DD
:1033DC002246FFF717FF31463846FFF737FFE9E77C
:1033EC003546E7E738B50023054C0546084623600B
:1033FC00FDF714FF431C02D1236803B12B6038BDC9
:10340C00180200207047704751F8043C181F002B1D
:10341C00BCBF0B58C0187047F8B500BFF8BC08BC4F
:10342C009E467047F8B500BFF8BC08BC9E46704776
:10343C00424C5F44454255475F4D53473A42757481
:10344C00746F6E2069732070726573736564202EBF
:10345C002E20676F696E6720746F20424C206D6F51
:10346C0064650A0D00000000424C5F44454255471C
:10347C005F4D53473A427574746F6E206973206EBA
:10348C006F742070726573736564202E2E206578BE
:10349C0065637574696E67207573657220617070F1
:1034AC000A000000424C5F44454255475F4D53476C
:1034BC003A496E76616C696420636F6D6D616E6400
:1034CC0020636F6465207265636569766564206648
:1034DC00726F6D20686F7374200A0000424C5F4459
:1034EC00454255475F4D53473A202564200A00005A
:1034FC00424C5F44454255475F4D53473A626F6FAC
:10350C00746C6F616465725F6A756D705F746F5F08
:10351C00757365725F6170700A000000424C5F4405
:10352C00454255475F4D53473A4D53502076616C99
:10353C007565203A202523780A000000424C5F4430
:10354C00454255475F4D53473A2061707020726574
:10355C007365742068616E646C657220616464725A
:10356C00203A202523780A00424C5F4445425547B7
:10357C005F4D53473A626F6F746C6F616465725F35
:10358C0068616E646C655F6765747665725F636DA8
:10359C00640A0000424C5F44454255475F4D534717
:1035AC003A636865636B73756D20737563636573DC
:1035BC00732021210A000000424C5F4445425547CC
:1035CC005F4D53473A424C5F564552203A20256492
:1035DC00202523780A000000424C5F4445425547A1
:1035EC005F4D53473A636865636B73756D20666115
:1035FC00696C2021210A0000424C5F44454255472A
:10360C005F4D53473A626F6F746C6F616465725FA4
:10361C0068616E646C655F67657468656C705F6328
:10362C006D640A00424C5F44454255475F4D534719
:10363C003A626F6F746C6F616465725F68616E641F
:10364C006C655F6765746369645F636D640A000031
:10365C00424C5F44454255475F4D53473A4D4355A5
:10366C00206964203A202564202523782021210A12
:10367C0000000000424C5F44454255475F4D5347A4
:10368C003A626F6F746C6F616465725F68616E64CF
:10369C006C655F6765747264705F636D640A0000CB
:1036AC00424C5F44454255475F4D53473A52445054
:1036BC00206C6576656C3A202564202523780A00F9
:1036CC00424C5F44454255475F4D53473A626F6FDA
:1036DC00746C6F616465725F68616E646C655F6762
:1036EC006F5F636D640A0000424C5F44454255476E
:1036FC005F4D53473A474F20616464723A2025234B
:10370C00780A0000424C5F44454255475F4D534791
:10371C003A206A756D70696E6720746F20676F2030
:10372C006164647265737321200A0000424C5F442B
:10373C00454255475F4D53473A474F206164647289
:10374C0020696E76616C69642021200A00000000FB
:10375C00424C5F44454255475F4D53473A626F6F49
:10376C00746C6F616465725F68616E646C655F66D2
:10377C006C6173685F65726173655F636D640A0089
:10378C00424C5F44454255475F4D53473A696E6919
:10379C007469616C5F736563746F72203A20256481
:1037AC0020206E6F5F6F66736563746F72733A205F
:1037BC0025640A00424C5F44454255475F4D5347D0
:1037CC003A20666C6173682065726173652073744E
:1037DC00617475733A202523780A0000424C5F44CB
:1037EC00454255475F4D53473A626F6F746C6F613A
:1037FC006465725F68616E646C655F6D656D5F7743
:10380C00726974655F636D640A000000424C5F442A
:10381C00454255475F4D53473A206D656D20777291
:10382C006974652061646472657373203A20252382
:10383C00780A0000424C5F44454255475F4D534760
:10384C003A2076616C6964206D656D2077726974BD
:10385C006520616464726573730A0000424C5F44B6
:10386C00454255475F4D53473A20696E76616C6906
:10387C0064206D656D207772697465206164647273
:10388C006573730A00000000424C5F444542554783
:10389C005F4D53473A626F6F746C6F616465725F12
:1038AC0068616E646C655F656E6469735F72775F87
:1038BC0070726F746563740A00000000424C5F44C0
:1038CC00454255475F4D53473A626F6F746C6F6159
:1038DC006465725F68616E646C655F6469735F7266
:1038EC00775F70726F746563740A0000424C5F44BA
:1038FC00454255475F4D53473A626F6F746C6F6129
:10390C006465725F68616E646C655F726561645F4B
:10391C00736563746F725F70726F74656374696FD3
:10392C006E5F7374617475730A000000424C5F44DF
:10393C00454255475F4D53473A206E5752502073BE
:10394C0074617475733A202523780A000203040508
:10395C00060708090A0B0C0D0E0F101001020000CF
:10396C000000000000000000010203040607080923
:10397C000000000001020304232D302B2000686C92
:10398C004C00656667454647003031323334353676
:10399C0037383941424344454600303132333435AF
:0C39AC00363738396162636465660000DC
:0439B80031010008D1
:0439BC000D010008F1
:1039C000515253545556575A0024F4001000000029
:1039D00001000000180000200000000000000000AE
:1039E00000000000000000000000000000000000D7
:1039F00000000000000000000000000000000000C7
:103A000000000000000000000000000000000000B6
:103A100000000000000000000000000000000000A6
:103A20000000000000000000000000000000000096
:083A300000000000000000008E
:04000005080012E9F4
:00000001FF
